:03000000021D34AA
:0C1D3400787FE4F6D8FD758121021D7B4C
:10177700B8C3CDA8B5C0B2BBB4E6D4DAA3A10D0AED
:1017870000414E2564203D2025660D0A006F6B2120
:101797000D0A566F6C436F653A202566202D20256C
:1017A70066202D202566202D2025660D0A00C9E814
:1017B700D6C3B4EDCEF3210D0A0050574D20C6B560
:1017C700C2CACCABD0A10D0A0050574D20C6B5C236
:1017D700CACCABB4F30D0A0050574D20D5BCBFD5CA
:1017E700B1C8CCABB4F30D0A0050574DB2A8C9E845
:1017F700D6C3B3C9B9A62C494F3A50256425642CE2
:1018070020C6B5C2CA3A256C642C20D5BCBFD5B159
:10181700C83A257525250D0A00D6B8B6A850574DE4
:10182700CAE4B3F6B9DCBDC5B4EDCEF3210D0A00A9
:1018370050574DB9A4D7F7D6DCC6DA203D2025642A
:101847006D73202020B9A4D7F7CAB1BCE4203D208E
:1018570025646D730D0A00D6B8B6A8B2A8D0CECA53
:10186700E4B3F6B9DCBDC5B4EDCEF3210D0A00C96A
:10187700E8D6C3D6B8B6A8B2A8D0CECAE4B3F6B9EC
:10188700DCBDC5CEAA3A50256425640D0A00D6B83A
:0A189700C1EEB4EDCEF3210D0A00FE
:1019B40048011C0000000000000000440016000262
:1019C40004064100730041001C00606400740000C0
:1019D4000000000000000000000000000000000003
:1019E40000000000000000000000000000000000F3
:1019F40000000000000000000000000000000000E3
:101A040000000000000000000000000000000000D2
:101A140000000000000000000000000000000000C2
:101A240000000000000000000000000000000000B2
:101A340000005000630000000000000000000000EF
:101A440000000000005000D800000000000000006A
:101A5400000000000000000042001403E842001AE5
:101A640001F442006000004E000501000101010084
:101A74000000010101000101410013004100620066
:101A84004100000041000100410002004200030047
:011A94000051
:100B270090012C1209D200000000E4900130F0A3DC
:100B3700F0A3F0A3F0A3F0A3F0A31209D2000000E2
:100B470000E490013AF0121A967B017A0079D87D79
:100B5700107F007E3B12208EE490013BF090013B1A
:100B6700E0FFC39404504EEF75F004A424D8F97441
:100B77000035F0FA7B01C002C00178287C017D01B5
:100B8700D001D0027E007F0412064D900128E0FCC0
:100B9700A3E0FDA3E0FEA3E0FF90013BE025E025F5
:100BA700E02463F582E43400F5831209C690013B23
:100BB700E004F080A81221F190013F74FFF0A374C4
:100BC70020F0A374CEF0A3E4F0A37432F07B017A93
:100BD7000079E81215D27B017A0079E812000378D0
:100BE700F47C007D017B007A0079007E007F14127F
:100BF700064D7B017A00791D1220FE90005FE044CC
:100C070001F078237C007D017B007A0079007E006B
:100C17007F3C12064D43BD109000F2E060F77874F8
:100C27007C007D017B007A0079007E007F641206DC
:100C37004D9000F4E024FE7003020D0914700302C6
:100C47000E5514700302102D14700302107C240437
:100C570060030210F69000F5E0FFD394065004EF0E
:100C670030E01090013F74FFF0A37417F0A374777E
:100C7700020E519000F5E0FF7E007C007D02120716
:100C87004290013AEFF025E0241CF582E43401F5A7
:100C970083E0FCA3E0FDE4120219E4FBFA79807813
:100CA70045120177E4FBFA7980784012006E9001D3
:100CB7003AE025E025E02463F582E43400F583E09B
:100CC700F8A3E0F9A3E0FAA3E0FB12006E90012C71
:100CD7001209C690013F74FFF0A37417F0A374883C
:100CE700F09000F5E0FF900142E4F0A3EFF09001EF
:100CF7002CE0FCA3E0FDA3E0FEA3E0FF900144028B
:100D07000E3E9000F5E0FF60116402600DEF640491
:100D17006008EF64066003020E4478247C017D01BD
:100D27007B017A0079F67E007F0412064D9001243C
:100D3700E0FCA3E0FDA3E0FEA3E0FFC004C005C004
:100D470006C0079000F5E0FF7E007C007D021207D9
:100D570042EF7802C333CE33CED8F92463F58274D9
:100D6700003EF583D007D006D005D0041209C6E4AB
:100D770090013BF090013BE0FFC394045048EF25FE
:100D8700E025E02463F582E43400F583E0FCA3E08A
:100D9700FDA3E0FEA3E0FF9001281209C690013BE6
:100DA700E075F004A424D8F9740035F0A801FC7D9F
:100DB700017B017A0179287E007F0412064D90019C
:100DC7003BE004F080AE7F007E3B12219F7B017ADF
:100DD7000079D87D107F007E3B12203190013F744F
:100DE700FFF0A37417F0A37494F0900063E0FCA3E2
:100DF700E0FDA3E0FEA3E0FF9001421209C69000C8
:100E070067E0FCA3E0FDA3E0FEA3E0FF900146122C
:100E170009C690006BE0FCA3E0FDA3E0FEA3E0FFA2
:100E270090014A1209C690006FE0FCA3E0FDA3E021
:100E3700FEA3E0FF90014E1209C602110490013F84
:100E470074FFF0A37417F0A374B5F00211049000B7
:100E5700F5E0FF64206021EF6422601CEF642360EB
:100E670017EF64246012EF6425600DEF64266008B5
:100E7700EF6427600302101C9000F5E0FDC45403E3
:100E8700900130F0ED5407A3F09000F6E0FFE4FC8A
:100E9700FDFEFBFA7901F812088AA804A905AA063B
:100EA700AB079000F7E0FEE4FCFD2BFBEA3EFAED12
:100EB70039F9EC38F8A3E0FFE4FEEB2FFFEE3AFE3A
:100EC700ED39FDEC38FC9001361209C6E47FE97E66
:100ED70001FDFC900136E0F8A3E0F9A3E0FAA3E0F6
:100EE700FBC31209B5501190013F74FFF0A37417AB
:100EF700F0A374C1F00211047F807E847D1E7C0004
:100F0700900136E0F8A3E0F9A3E0FAA3E0FBD312DF
:100F170009B5401190013F74FFF0A37417F0A37453
:100F2700D0F00211049000F9E0D3946474809480A7
:100F3700401090013F74FFF0A37417F0A374DF0211
:100F47001018121CA29000F5E090FF90F090013667
:100F5700E0F8A3E0F9A3E0FAA3E0FB7F807E847DBD
:100F67001E7C00120915900132EEF0A3EFF09001FC
:100F770032E0FCA3E0FDECF5E3EDF5E29000F9E0EB
:100F8700FCE412021EC004C005C006C0079001326F
:100F9700E0FCA3E0FDE4120219D003D002D001D097
:100FA7000012006EE4FBFA79C87842120177120248
:100FB70052900134EEF0A3EFF0900134E0FCA3E08F
:100FC700FDEC540FF5E5EDF5E490013F74FFF0A358
:100FD7007417F0A374F0F0900130E0FF900142E441
:100FE700F0A3EFF0900131E0FF900144E4F0A3EFAC
:100FF700F0900136E0FCA3E0FDA3E0FEA3E0FF9044
:1010070001461209C69000F9E0FF90014AE4F0A3F7
:10101700EFF002110490013F74FFF0A37418F0A3DE
:101027007420F00211049000F5E0FEA3E07C002498
:1010370000FFEC3E900014F0A3EFF09000F7E0FE05
:10104700A3E02400FFEC3EFE90001AF0A3EFF0901F
:10105700013F74FFF0A37418F0A37437F0900014E5
:10106700E0FDA3E0900142CDF0A3EDF0A3EEF0A3E5
:10107700EFF00211049000F5E0FFC45403FE900165
:1010870030F0EF5407A3F0EE601090013F74FFF0CB
:10109700A37418F0A3745EF08063900131E0FF64DD
:1010A70001601AEF64056015EF6407601090013F57
:1010B70074FFF0A37418F0A3745EF08040121CA2B2
:1010C700E4900013F090013F74FFF0A37418F0A3AD
:1010D7007476F0900130E0FF900142E4F0A3EFF066
:1010E700900131E0FF900144E4F0A3EFF0800E900F
:1010F700013F74FFF0A37418F0A37495F07B017A95
:101107000079741211B478F47C007D017B007A00B9
:1011170079007E007F1412064DE49000F2F0A3F0F0
:101127007B0190013F04F0A37400F0A3741DF07AD3
:1011370000797412002690005FE020E003020C1C87
:0811470054FEF0D299020C1CC9
:101A9600758E5190FE917401F090FF10E0540F4442
:101AA60080F090FF01E0540F4420F090FFA07421D5
:101AB600F0A37403F0E490FE8BF075CC0675CEFFB0
:101AC60075CD98759E0275981043A810D2AF90FEFA
:101AD60080F0F589758CFA758ACB43A80243881085
:101AE600F0F589758D7D758BCA43A80843884090AB
:101AF600FF00E054F04403F0A3E054F04403F0A3E5
:101B0600E054F04403F0A3E054F04403F075B481CC
:101B16007F0A7E0012000EE4F5B590FE9B744DF030
:101B260043BA0C43B820D2AF53B4DF90FE92741080
:101B3600F075BD5790FEA074FFF090FF11E054F0D1
:101B46004408F090FF907422F075DA0175E303758E
:101B5600E2FF75E50175E45575E10B90FF00E05471
:051B66000F4480F02295
:081CA200900130E0FFA3E0FD1A
:101CAA00EF604124FE6003021D33EDC31314601379
:101CBA0014601B1460232403706FED90FF1030E052
:101CCA00628059ED90FF1130E00280508055ED900E
:101CDA00FF1230E0028045804AED90FF1330E002A7
:101CEA00803A803FEDC31314601514601D146025FB
:101CFA0024037035ED90FF0030E002801F8024ED50
:101D0A0090FF0130E00280148019ED90FF0230E06C
:101D1A00028009800EED90FF0330E007E0540F4483
:0A1D2A0080F022E054F04408F0229B
:03006B00021FC6AB
:101FC600C0E0C083C082C0D075D000C006C0075331
:101FD600B4DF900073E025E0241CF582E43401F5BB
:101FE60083E5B7F0A3E5B6F0900073E004F0E0B443
:101FF600041490001CE004F0900073E4F090001CC0
:10200600E0B44002E4F0900073E02416F582E43474
:1020160000F583E0FFE5B554F8FEEF4EF5B5D007C1
:0B202600D006D0D0D082D083D0E032B2
:03000B00021F4889
:101F4800C0E0C0F0C083C082C0D075D000C000C05F
:101F580001C002C003C004C005C006C007121EC9E4
:101F680043B440900061E004F07006900060E00423
:101F7800F090001AE0FEA3E0FF900060E0FCA3E010
:101F8800FDD39FEC9E400353E1FE900014E0FEA3B6
:101F9800E0FFC3ED9FEC9E400A900060E4F0A3F0E0
:101FA80043E101D007D006D005D004D003D002D039
:0E1FB80001D000D0D0D082D083D0F0D0E03263
:0B000E00EF1FAC0670011E4C70F622C4
:030023000218A11F
:1018A100C0E0C0F0C083C082C0D075D000C000C00D
:0D18B10001C002C003C004C005C006C0078E
:1018BE00E59820E00302195E7B017A0079E87D321B
:1018CE007C001221C17B017A0079E812000390009E
:1018DE0001E060149000F3E0FF04F074082FF5822D
:1018EE00E43401F583E599F0E599900000B4FF0525
:1018FE00E004F08002E4F0900000E0B40218A3745B
:10190E0001F09000F3E4F078087C017D01FBFAF918
:10191E00FE7F1412064D9000F3E0C39414402E90F7
:10192E0000F27401F078F47C00FD7B007A007900FF
:10193E007E007F1412064D9000F3E0FF7E0078F4D7
:10194E007C007D017B017A01790812064D5398FEC9
:10195E00E59830E136900021E07002A3E06022901D
:10196E0001727401F0A37400F0A3741DF07B017A70
:10197E00007902121C0EEF600F900002E0F59980C4
:0B198E000790005FE04401F05398FD5B
:10199900D007D006D005D004D003D002D001D000A2
:0B19A900D0D0D082D083D0F0D0E0324C
:1020CE0078F47C007D017B007A0079007E007F141D
:1020DE0012064D9000F3E0FF7E0078F47C007D0147
:1020EE007B017A01790812064D9000F27401F022FC
:10212C00D310AF01C3C0D08FFB75FDF075FC0FAEA3
:10213C0004AF058EFA8FF975FDB475FC4B75FDE196
:08214C0075FC1ED0D092AF22F9
:10203100D310AF01C3C0D090013CEEF0A3EFF0A3E9
:0B204100EDF0A3EBF0A3EAF0A3E9F040
:10204C00E4A3F0F090013EE0FF900142E0C39F500A
:10205C002C90013FE0FBA3E475F001120778A9F086
:10206C00FA120673FF90013CE475F001120778AD8B
:0D207C00F0FC12212C900142E004F080C71E
:05208900D0D092AF224F
:10208E0090013CEEF0A3EFF0A3EBF0A3EAF0A3E98E
:10209E00F0AF051DEF602890013CE475F0011207CA
:1020AE007885F082F583E493FF90013EE0FBA3E494
:1020BE0075F001120778A9F0FAEF1206B980D22254
:10219F00D310AF01C3C0D075FDF075FC0F8EFA8F51
:1021AF00F975FDD275FC2D75FDE175FC1ED0D09231
:0221BF00AF224D
:03001B00021DC003
:081DC000C0E0C083C082C0D066
:101DC800900004E004F07006900003E004F0C39073
:101DD8000004E09404900003E09400405AE4F0A367
:101DE800F0900062E014601B14602C2402703A909A
:101DF8000013E02405F582E43400F583E024FF9223
:101E0800818026900013E02405F582E43400F583F0
:101E1800E024FF92858012900013E02405F582E407
:101E28003400F583E024FF9287900013E004F0E08B
:071E3800D3940E4002E4F018
:091E3F00D0D0D082D083D0E03273
:0A21F10090017BE4F0A3F0A3F022BC
:0B15D20090013CEBF0A3EAF0A3E9F06D
:1015DD0090017BE0F9A3E0FAA3E0900144C9F0A3E8
:1015ED00EAF0A3E9F0900144E0FBA3E0FAA3E04A9E
:1015FD004B600302168E90013CE0FBA3E0FAA3E0E2
:10160D00F9900144EBF0A3EAF0A3E9F0E4F5F01250
:10161D00083E900142E0FEA3E0FFA3E0FBA3E0FA49
:10162D00A3E0F9900002EE8FF012085D90013FE00B
:10163D00FBA3E0FAA3E0F9C003C002C0019001448E
:10164D00E0FBA3E0FAA3E0F9900004120A537B003B
:10165D007A007900C003C002C001900144E0FBA3F1
:10166D00E0FAA3E0F9900007120A53900144E0F963
:10167D00A3E0FAA3E090017BC9F0A3EAF0A3E9F09F
:10168D002290017BE0F9A3E0FAA3E0900144C98028
:10169D002B900144E0FBA3E0FAA3E0F990000712C0
:1016AD000A23E94A4B601E900144E0FBA3E0FAA334
:1016BD00E0F9900007120A23900144EBF0A3EAF041
:1016CD00A3E9F080CC90013CE0FBA3E0FAA3E0F9A4
:1016DD00C003C002C001900144E0FBA3E0FAA3E007
:1016ED00F9900007120A53900144E0FBA3E0FAA31E
:1016FD00E0F9900007120A23E4F5F012083E90017C
:10170D0042E0FEA3E0FFA3E0FBA3E0FAA3E0F99023
:10171D000007120A23900002EE8FF012085D90016F
:10172D003FE0FBA3E0FAA3E0F9C003C002C00190C3
:10173D000144E0FBA3E0FAA3E0F9900007120A23AD
:10174D00900004120A537B007A007900C003C00296
:10175D00C001900144E0FBA3E0FAA3E0F99000077B
:09176D00120A23900007120A532E
:011776002250
:0B1B6B00900175EBF0A3EAF0A3E9F095
:101B760090017BE0F9A3E0FAA3E0900178C9807DAB
:101B8600900178E0FBA3E0FAA3E04A4B607990016C
:101B960078A3A3E0F9900007120A23C003C002C08D
:101BA60001900175E0FBA3E0FAA3E0F9D082D083AF
:101BB600D0E06B7008E965827003EA65837029904E
:101BC6000175E0FBA3E0FAA3E0F9900007120A23EF
:101BD600C003C002C001900178E0FBA3E0FAA3E0D5
:101BE600F9900007120A5322900178E0FBA3E0FA6D
:101BF600A3E0F9900007120A23900178EBF0A3EA1C
:071C0600F0A3E9F0021B86C8
:011C0D0022B4
:07000300E475F00102083E64
:1021D200E475F00212083E900002E4F5F002085D98
:10217B0012078EFFAEF064014E7005900002800EC8
:10218B00EF4E700F75F00112083E900002E4F5F06F
:04219B0012085D22A7
:0F21E20012078E640145F07005F5F012083E22D9
:1021C100E4F5F012083EAF05900002EC8FF0020832
:0121D1005DB0
:101EC90090017BE0F9A3E0FAA3E090016CC9806579
:101ED90090016CE0FBA3E0FAA3E04A4B606090013B
:101EE9006CA3A3E0F912078E640145F070329000EB
:101EF900021207B9D39400E5F09400400C90000257
:101F090074FFF5F01207F180171221D290016CE0ED
:101F1900FBA3E0FAA3E0F9900004120A23120AD203
:101F290090016CE0FBA3E0FAA3E0F9900007120A24
:0E1F39002390016CEBF0A3EAF0A3E9F0809294
:011F47002277
:1020FE00E4F5F012083E900002E4F5F012085D904F
:10210E000004E4F5F012085D900042E41206CBE9FB
:0E211E002442F9E43AFA12067344010206B9AB
:101E4800900143EBF0A3EAF0A3E9F0900143E0FB33
:101E5800A3E0FAA3E0F99000041207B9C3943CE5A3
:101E6800F0940040037F0022900143E0FBA3E0FAD6
:101E7800A3E0F99000021207B9FDE92406F9E43A53
:101E8800FAE92DF9EA35F0FAEF1206B9900143E0C4
:101E9800FBA3E0FAA3E0F99000021207B92401FFBE
:101EA800E435F0FE7C007D3C1206ED900002EC8DDE
:101EB800F012085D900004E475F0011207F17F014B
:011EC80022F7
:101C0E0090016FEBF0A3EAF0A3E9F0A3E0FBA3E0F1
:101C1E00FAA3E0F99000041207B945F07002FF2212
:101C2E00E92406F9E43AFAC003C002C00190017239
:101C3E00E0FBA3E0FAA3E0F912078ED001D002D0A8
:101C4E000329F9EA35F0FA120673FF90016FE0FBF3
:101C5E00A3E0FAA3E0F9EF1206B9900172E0FBA33C
:101C6E00E0FAA3E0F912078E2401FFE435F0FE7CC2
:101C7E00007D3C1206EDEC8DF012083E900172E0F4
:101C8E00FBA3E0FAA3E0F990000474FFF5F012074D
:041C9E00F17F0122AF
:0B00260090013CEBF0A3EAF0A3E9F02E
:10003100E4900142F090013CE0FBA3E0FAA3E0F977
:10004100900142E0F58275830012068CFF601690E4
:10005100013FE0FBA3E0FAA3E0F9121E4890014240
:05006100E004F080D076
:010066002277
:10006E00EC4D6011E8497017ED33EC3304600DE48C
:10007E00FCFFFEFD22E933E8330470F80202BE12E3
:10008E00028958046009E4CC2481500628500902E4
:10009E0002C82840030202C5C0E0EB4A7044B98092
:1000AE0006D0E0FB0202B4EF4E701CBD8008EBFFE1
:1000BE00EAFEE9FD80EBE98DF0A4FEE5F0020157C2
:1000CE00E9CDF9EAFEEBFFEF89F0A4FCE5F0CE896D
:1000DE00F0A42EFFE435F0CD89F0A42DFEE435F02A
:1000EE008067EF4E7005BD80D780C3EF8BF0A4AC58
:1000FE00F0EE8BF0A42CFCE435F0F8EF8AF0A42C93
:10010E00E5F038FCE433CB8DF0A42CFCE5F03BF8A5
:10011E00EE8AF0A42CFCE5F038F8E433CF89F0A495
:10012E002CFCE5F038CF3400CE89F0A42FFFE5F09B
:10013E003EFEE433C98DF0A42EFEE5F039CD8AF0F3
:10014E00A42FFFE5F03EFEE43DFD33D0E0FB50076B
:10015E000BBB000F0202C8EC2CFCEF33FFEE33FE9C
:06016E00ED33FD0202A0CA
:100174000202C8EC5D046005E8590470030202BE83
:10018400120289580460F6EC4860F2EC7004FDFE3B
:10019400FF22C860DB2481C85009C398600250065E
:1001A4000202C59850CAF582E9294B4A7005AB8210
:1001B4000202B475F0007C1A7880C3EF9BEE9AEDCE
:1001C40099400DC3EF9BFFEE9AFEED99FDE842F0D6
:1001D400DC23ACF0D0E0FFD0E0FED0E0FDAB822029
:1001E400E7101BEB60BAEC2CFCEF33FFEE33FEEDB3
:1001F40033FD0202A0E803F830E705C0F075F00013
:10020400EF2FFFEE33FEED33FD40B830E7C280AA96
:1002140075F020800E75F010800575F0087D007E65
:10022400007F003392D530D5031209A7EC33401078
:10023400EF33FFEE33FEED33FDEC33FCD5F0ED226E
:0E024400E5F0247EA2D513CC92E7CDCEFF22AA
:10025200EDD2E7CD33EC3392D524814006E4FFFEA4
:10026200FDFC22FCE4CFCECDCC24E0501174FF8003
:10027200EDC3CC13CCCD13CDCE13CECF13CF0470A0
:07028200F030D5DE0209A7F0
:10114F00E508243FF582E43401F583E00508229099
:10115F00013C30070390013FE475F001120A0302CE
:10116F0006732000E97F2ED2008018EF540F2490D1
:10117F00D43440D4FF30040BEF24BFB41A00500313
:10118F002461FFE50960021509050CE50C700205E5
:10119F000B30070E90013CE475F001120A03EF02C9
:1011AF0006B90221547403D2078003E4C207F5087D
:1011BF0090013C120A1AE4F509F50BF50CE50960EC
:1011CF00077F2012119280F5750AFFC201C200C27B
:1011DF0002C203C205C206C20812115EFF700D30B3
:1011EF0007057F001211A3AF0CAE0B22B4255FC20F
:1011FF00D5C20412115EFF24D0B40A00501A75F044
:10120F000A780930D50508B6FF0106C6A426F620D0
:10121F00D5047002D20380D924CFB41A00EF500442
:10122F00C2E5D204021495D20180C6D20080C0D28A
:10123F000280BCD2D580BAD20580B47F2012119221
:10124F002002077401B5090040F112114FFF12116E
:10125F00920211CCD208D206809512114FFB1211B7
:10126F004FFA12114FF94A4B700679937A157BFF9B
:10127F0020022EE509602A7E008E827583001206F9
:10128F008C60060EEE650A70F0C2D5EBC0E0EAC0C6
:10129F00E0E9C0E0EE1214F6D0E0F9D0E0FAD0E0C9
:1012AF00FB120673FF60AAEBC0E0EAC0E0E9C0E002
:1012BF00121192D0E02401F9D0E03400FAD0E0FB13
:1012CF00E50A0460DCD50AD98087D20280A2121405
:1012DF00D860F7E50A7001041202D3A90A600DE580
:1012EF000A600914F50A121580EF60F3EA30E7027D
:1012FF00F404C3995079EAF4250A0430E701E404B1
:10130F00F50A800D1214D860C1EA050A250A1202E7
:10131F00D3EA90016BF030E701E4250A04D50A0403
:10132F00200501141214F6E4C0E012158090016B31
:10133F00E0601320E70714F012117A802204F0D036
:10134F00E014C0E07F0012117AE50A6007121171F4
:10135F00150A800B300503121171D0E00211CCD0A9
:10136F00E00480C41214D8609EE50A041202D390E0
:10137F00016BEAF0E50A200502600104240412144F
:01138F00F667
:1013900074FF04C0E012158012117AE50A200502DC
:1013A0006003121171D0E0B50AE87F4512118490F4
:1013B000016BE07F2B30E7047F2DF404C0E01211B5
:1013C00092D0E075F00A84C0F012117BD0E01211C7
:1013D0007B0211CC791080027908C206C20880080D
:1013E000D2D5790A8004790AC2D5E50A047002F5DB
:1013F0000AE4FAFDFEFF12114FFC7B0820011312D4
:10140000114FFD7B1030000A12114FFE12114FFFD9
:101410007B20EC3382D592D55013C3E43000069F75
:10142000FFE49EFEE42001039DFDE49CFCE4CBF878
:10143000C201EC700CCFCECDCCE824F8F870F3806C
:1014400017C3EF33FFEE33FEED33FDEC33FCEB332C
:10145000FB994002FB0FD8E9EB300105F8D0E0C45E
:1014600048B201C0E00AEC4D4E4F78207B0070C2BC
:10147000EAB50A0040BCC0E01214F8D0F0D0E02079
:101480000104C4C0E0C4B201C0F012117BD0F0D599
:10149000F0EB0211CC120AAC12695313D458123A71
:1014A0004C12364213D84F13E04413E049124F4315
:1014B00013E65513134613734512DD4715B3501247
:1014C0003E2D12422E12652B124623126320159CCC
:1014D0002A11FE480000125DE50AB4FF03750A06F2
:1014E00012114FFC12114FFD12114FFE12114FFF3E
:1014F000900164020310790AA2D520031430050973
:10150000B910020404B9080104A2D5200602500152
:10151000042002689202B509005034C0E07F2030F8
:1015200003197F30A20272067205500F12154FC2C6
:1015300002C206C205C2087F30800F300503E9C031
:10154000E0121192300503D0E0F9D0E0B509CC30BB
:1015500005177F30B9100C1211927F583004077FA5
:10156000788003B908031211923002057F2D021111
:10157000927F202008F87F2B2006F322920280CF52
:101580007F00B40700500B2464F582E43401F58336
:10159000E0FF22286E756C6C2900D20112114F30C9
:1015A00001F8C201780930D50108F60211FE2D506C
:1015B00043495812114F2403B405004001E490152B
:1015C000AE93121183743A121183D2037509040287
:0215D00013D432
:10028900E9D2E7C933E833F892D5EDD2E7CD33ECBB
:0702990033FC5002B2D52234
:1002A000EC30E7100FBF000C0EBE00080DBD0004BF
:1002B0000BEB6014A2D5EB13FCED92E7FD2274FF6B
:1002C000FCFDFEFF22E480F8A2D574FF13FC7D80C4
:0302D000E480EFD8
:1002D300F920E73624F950037907E4F42402FBE517
:1002E30082158270021583DBF6E024FB501BE96064
:1002F30014E4F0E582158270021583E004F0B40A79
:0D03030008E4F0D9EE7401F00A22C2D52200
:10031000ED33EC3392D5FA602AB4FF33EDC2E77BBC
:10032000FF60067A037935E4227A03793E20D5040A
:100330007A037939224E614E002B494E46002D49F1
:100340004E4600E47A08F0A3DAFC7B00740722C072
:1003500083C082ECC0E0EDC0E0EEC0E0EFC0E0EAB8
:1003600075F010A4CAABF075F04DA42BFBE435F08A
:10037000FCEA2410FAEB34C5FBEC34D9FCEDC2E7FF
:10038000FF75F056A4F42411C5F0F434C58FF0A421
:100390002AE5F03BE43CF020E71412053DD0E0FFF5
:1003A000D0E0FED0E0FDD0E0FC1201778014F40430
:1003B00012053DD0E0FFD0E0FED0E0FDD0E0FC1221
:1003C000006ED082D083E0FAEDD2E7CD33EC332457
:1003D00082FBE4C3CF33CFCE33CECD33CD33DBF38B
:1003E0007B0775F00A846004F0A31B0AE5F0F0A314
:1003F0008FF0740AA4FFACF08EF0740AA42CFEAC4B
:10040000F050010C8DF0740AA42CFDE435F0F0A33B
:05041000DBDE74072291
:100415000202BEE86480F8E933E83360110460F055
:10042500ED33EC337009E8FCE9FDEAFEEBFF22044D
:1004350060DED3EB9FEA9EE99DE8C2E78CF0C2F748
:1004450095F0400CE8CCF8E9CDF9EACEFAEBCFFB14
:1004550012028985D0F05804700320D5B3E80470E2
:10046500075002B2D50202C892D5EC0460F7E4CC7D
:10047500C0E0C398F8603B94186008400DD0E0FBDD
:100485000202A0E4FBFAC9FC8028E830E406E4C9CE
:10049500FBE4CAFCE830E305E4C9CACBFCE8540731
:1004A5006010F8C3E913F9EA13FAEB13FBEC13FC3C
:1004B500D8F130F52FC3E49CFCEF9BFFEE9AFEEDDF
:1004C50099FDD0E0FBEF4E4D4C701222DB0302028A
:1004D500C5EC2CFCEF33FFEE33FEED33FDED30E7DD
:1004E500EB0202A0EF2BFFEE3AFEED39FDD0E0FB6B
:1004F50050130BBB00030202C8ED13FDEE13FEEF14
:0805050013FFEC13FC0202A03D
:10050D003F8000004120000042C80000447A0000F6
:10051D00461C400047C35000497424004B18968078
:10052D004CBEBC205A0E1BCA6753C21C749DC5AE6F
:10053D00FB60065407601C232312056BEB543860D7
:10054D000912055712056612006EECF8EDF9EEFA78
:10055D00EFCB22EB12056680F1543803241C900575
:10056D000DFE93FC0EEE93FD0EEE930ECE93FF2239
:101D4000020B27E493A3F8E493A34003F68001F287
:101D500008DFF48029E493A3F85407240CC8C333A4
:101D6000C4540F4420C8834004F456800146F6DF73
:101D7000E4800B01020408102040809019B4E47E36
:101D8000019360BCA3FF543F30E509541FFEE49368
:101D9000A360010ECF54C025E060A840B8E493A32F
:101DA000FAE493A3F8E493A3C8C582C8CAC583CA5A
:101DB000F0A3C8C582C8CAC583CADFE9DEE780BE12
:011A95000050
:10057D00E709F608DFFA8046E709F208DFFA803E60
:10058D0088828C83E709F0A3DFFA8032E309F6084D
:10059D00DFFA8078E309F208DFFA807088828C83B5
:1005AD00E309F0A3DFFA806489828A83E0A3F60869
:1005BD00DFFA805889828A83E0A3F208DFFA804C43
:1005CD0080D280FA80C680D4806980F2803380101A
:1005DD0080A680EA809A80A880DA80E280CA803383
:1005ED0089828A83ECFAE493A3C8C582C8CCC583FB
:1005FD00CCF0A3C8C582C8CCC583CCDFE9DEE780CB
:10060D000D89828A83E493A3F608DFF9ECFAA9F049
:10061D00EDFB2289828A83ECFAE0A3C8C582C8CC9F
:10062D00C583CCF0A3C8C582C8CCC583CCDFEADEB8
:10063D00E880DB89828A83E493A3F208DFF980CC1A
:10064D0088F0EF60010E4E60C388F0ED2402B40413
:10065D000050B9F582EB2402B4040050AF232345BA
:06066D0082239005CD730D
:10067300BB010689828A83E0225002E722BBFE0285
:09068300E32289828A83E49322B8
:10068C00BB010CE58229F582E5833AF583E0225023
:10069C0006E92582F8E622BBFE06E92582F8E2226D
:0D06AC00E58229F582E5833AF583E4932287
:1006B900BB010689828A83F0225002F722BBFE0120
:0206C900F3221A
:1006CB00F8BB010DE58229F582E5833AF583E8F065
:1006DB00225006E92582C8F622BBFE05E92582C811
:0206EB00F222F9
:1006ED00BC000BBE0029EF8DF084FFADF022E4CCF1
:1006FD00F875F008EF2FFFEE33FEEC33FCEE9DECBA
:10070D00984005FCEE9DFE0FD5F0E9E4CEFD22EDFF
:10071D00F8F5F0EE8420D21CFEADF075F008EF2F49
:10072D00FFED33FD4007985006D5F0F222C398FD3A
:05073D000FD5F0EA22D7
:10074200C2D5EC30E709B2D5E4C39DFDE49CFCEED2
:1007520030E715B2D5E4C39FFFE49EFE1206EDC357
:10076200E49DFDE49CFC80031206ED30D507C3E452
:060772009FFFE49EFE2241
:10077800A3F8E0C5F025F0F0E58215827002158334
:06078800E0C838F0E82291
:10078E00BB010A89828A83E0F5F0A3E02250068736
:10079E00F009E71922BBFE07E3F5F009E3192289F8
:0B07AE00828A83E493F5F0740193222B
:1007B900BB0110E58229F582E5833AF583E0F5F07E
:1007C900A3E0225009E92582F886F008E622BBFE5B
:1007D9000AE92582F8E2F5F008E222E5832AF583A1
:0807E900E993F5F0A3E9932266
:1007F100BB010DC58229C582C5833AC583020AD8CA
:100801005011C58229F808E5F026F618F5F0E582C1
:1008110036F622BBFE11C58229F808E225F0F5F073
:10082100F218E23582F222F8E58229F582E5832A7F
:0D083100F58374019325F0F5F0E49338226F
:10083E00BB010A89828A83F0E5F0A3F0225006F705
:0F084E0009A7F01922BBFE06F3E5F009F3192202
:10085D00F8BB0111E58229F582E5833AF583E8F0CD
:10086D00E5F0A3F0225009E92582C8F608A6F0228A
:0D087D00BBFE09E92582C8F2E5F008F22271
:10088A00E88FF0A4CC8BF0A42CFCE98EF0A42CFC0D
:10089A008AF0EDA42CFCEA8EF0A4CDA8F08BF0A48B
:1008AA002DCC3825F0FDE98FF0A42CCD35F0FCEBEA
:1008BA008EF0A4FEA9F0EB8FF0A4CFC5F02ECD39AF
:0F08CA00FEE43CFCEAA42DCE35F0FDE43CFC221C
:1008D90075F008758200EF2FFFEE33FECD33CDCCD6
:1008E90033CCC58233C5829BED9AEC99E582984059
:1008F9000CF582EE9BFEED9AFDEC99FC0FD5F0D636
:10090900E4CEFBE4CDFAE4CCF9A88222B800C1B95F
:100919000059BA002DEC8BF084CFCECDFCE5F0CB9D
:10092900F97818EF2FFFEE33FEED33FDEC33FCEBD6
:1009390033FB10D703994004EB99FB0FD8E5E4F991
:10094900FA227818EF2FFFEE33FEED33FDEC33FC7E
:10095900C933C910D7059BE99A4007EC9BFCE99A72
:10096900F90FD8E0E4C9FAE4CCFB2275F010EF2FB7
:10097900FFEE33FEED33FDCC33CCC833C810D707B7
:100989009BEC9AE899400AED9BFDEC9AFCE899F8F2
:0E0999000FD5F0DAE4CDFBE4CCFAE4C8F92285
:0E09A700C3E49FFFE49EFEE49DFDE49CFC2261
:1009B500EB9FF5F0EA9E42F0E99D42F0E89C45F098
:0109C500220F
:0C09C600ECF0A3EDF0A3EEF0A3EFF022A4
:1009D200A8828583F0D083D0821209E91209E91234
:1009E20009E91209E9E473E493A3C583C5F0C58359
:1009F200C8C582C8F0A3C583C5F0C583C8C582C86F
:010A020022D1
:100A0300F8E0FBA3A3E0F925F0F0E582158270027C
:070A13001583E0FA38F02220
:090A1A00EBF0A3EAF0A3E9F022DD
:100A2300BB010DE58229F582E5833AF583020B00CC
:100A33005007E92582F8020AEEBBFE07E92582F892
:100A4300020B09E58229F582E5833AF583020B1B44
:100A5300BB0120E58229F582E5833AF583D0F0D006
:100A6300E0F8D0E0F9D0E0FAD0E0FBE8C0E0C0F075
:100A7300020A1A5018E92582F8D083D082D0E0F90F
:100A8300D0E0FAD0E0FBC082C083020AF7BBFE18B5
:100A9300E92582F8D083D082D0E0F9D0E0FAD0E023
:090AA300FBC082C083020B122289
:100AAC00D083D082F8E4937012740193700DA3A3D9
:100ABC0093F8740193F5828883E4737402936860ED
:060ACC00EFA3A3A380DFED
:060AD2008A838982E473AF
:10215400EFB40A07740D12215F740A309811A8991C
:10216400B8130CC2983098FDA899C298B811F630EB
:0721740099FDC299F59922C3
:100AD800C5F0F8A3E028F0C5F0F8E58215827002A9
:060AE8001583E038F02246
:090AEE00E6FB08E6FA08E6F9222D
:090AF700EBF608EAF608E9F62224
:090B0000E0FBA3E0FAA3E0F922F6
:090B0900E2FB08E2FA08E2F9221D
:090B1200EBF208EAF208E9F22214
:0C0B1B00E493FB740193FA740293F92236
:00000001FF
