:03000000021C9F40
:0C1C9F00787FE4F6D8FD758121021CE678
:1016C400C3BBD3D0B8C3C3FCC1EEA3A10D0A004170
:1016D4004E2564203D2025660D0A00B8C3CDA8B56B
:1016E400C0B2BBB4E6D4DAA3A10D0A006F6B210D1E
:1016F4000A566F6C436F653A202566202D202566B7
:10170400202D202566202D2025660D0A00C9E8D647
:10171400C3B4EDCEF3210D0A00D6B8B6A850574D88
:10172400CAE4B3F6B9DCBDC5B4EDCEF3210D0A00AD
:1017340050574D20C6B5C2CACCABD0A10D0A00503B
:10174400574D20C6B5C2CACCABB4F30D0A005057EE
:101754004D20D5BCBFD5B1C8CCABB4F30D0A0050F5
:10176400574DB2A8C9E8D6C3B3C9B9A62C494F3A54
:1017740050256425642C20C6B5C2CA3A256C642C55
:1017840020D5BCBFD5B1C83A257525250D0A005012
:10179400574DB9A4D7F7D6DCC6DA203D2025646DB1
:1017A40073202020B9A4D7F7CAB1BCE4203D20257A
:1017B400646D730D0A00C9E8D6C3D6B8B6A8B2A83A
:1017C400D0CECAE4B3F6B9DCBDC5CEAA3A5025647E
:1017D40025640D0A00D6B8B6A8B2A8D0CECAE4B320
:0D17E400F6B9DCBDC5B4EDCEF3210D0A0051
:101A07004801090000000000000000440016000221
:101A170004064100730041001C00603C0074000094
:101A270000000000000000000000000000000000AF
:101A3700000000000000000000000000000000009F
:101A4700000000000000000000000000000000008F
:101A570000000000000000000000500063000000CC
:101A6700000000000000000000000000005000C45B
:101A7700000000000000000000000000000000005F
:101A870042001403E842001A01F442006000004ECD
:101A97000005010001010100000001010100010131
:101AA70041001300410062005400B001FF19090210
:101AB700FF154803FF0FAA04FF210F05FF1FBB41B6
:101AC7000000004100010041000200420003000045
:101C0F001213CB7B017A00791D12224043BD109035
:101C1F0000DFE060F778747C007D017B007A00794B
:101C2F00007E007F3C12064D9000E1E0FFD3940050
:101C3F00400AEF9406500512203280179001287445
:101C4F00FFF0A37416F0A374C4F07B017A007974CB
:101C5F00120B8C78E17C007D017B007A0079007E8D
:101C6F00007F1412064DE49000DFF07B0190011C01
:101C7F0004F0A37400F0A3741DF07A0079741200BD
:101C8F002690005FE030E08454FEF0D299021C1BD6
:1013CB00758E5190FE917401F090FF10E0540F4414
:1013DB0080F090FF01E0540F4420F090FFA07421A7
:1013EB00F0A37403F0E490FE8BF075CC0675CEFF82
:1013FB0075CD98759E0275981043A810D2AF90FECC
:10140B0080F0F589758CFA758ACB43A80243881056
:10141B00F0F589758D7D758BCA43A808438840907C
:10142B00FF00E054F04403F0A3E054F04403F0A3B6
:10143B00E054F04403F0A3E054F04403F075B4819E
:10144B007F0A7E0012000EE4F5B590FE9B744DF002
:10145B0043BA0C43B820D2AF53B4DF90FE92741052
:10146B00F075BD5790FEA074FFF090FF11E054F0A3
:10147B004408F090FF907422F075DA0175E3037560
:10148B00E2FF75E50175E45575E10B90FF00E05443
:10149B000F4480F07B017A0079C47D107F007E3B86
:1014AB001221CDE49000DEF09000DEE0FFC3940447
:1014BB00504EEF75F004A424C4F9740035F0FA7B98
:1014CB0001C002C00178157C017D01D001D0027EE4
:1014DB00007F0412064D900115E0FCA3E0FDA3E094
:1014EB00FEA3E0FF9000DEE025E025E02463F5821B
:1014FB00E43400F5831209C69000DEE004F080A806
:10150B0012233390011C74FFF0A37422F0A3740D0B
:10151B00F0A3E4F0A37432F07B017A0079D41212B9
:10152B00267B017A0079D412000378E17C007D01DF
:0D153B007B007A0079007E007F1402064DCF
:101D2B00EF604124FE6003021DB4EDC31314601376
:101D3B0014601B1460232403706FED90FF1030E0D0
:101D4B00628059ED90FF1130E00280508055ED908C
:101D5B00FF1230E0028045804AED90FF1330E00225
:101D6B00803A803FEDC31314601514601D14602579
:101D7B0024037035ED90FF0030E002801F8024EDCE
:101D8B0090FF0130E00280148019ED90FF0230E0EB
:101D9B00028009800EED90FF0330E007E0540F4402
:0A1DAB0080F022E054F04408F0221A
:03006B000220A4CC
:1020A400C0E0C083C082C0D075D000C006C0075352
:1020B400B4DF900073E025E02409F582E43401F5EF
:1020C40083E5B7F0A3E5B6F0900073E004F0E0B464
:1020D400041490001CE004F0900073E4F090001CE1
:1020E400E0B44002E4F0900073E02416F582E43496
:1020F40000F583E0FFE5B554F8FEEF4EF5B5D007E3
:0B210400D006D0D0D082D083D0E032D3
:03000B00021F3D94
:101F3D00C0E0C0F0C083C082C0D075D000C000C06A
:101F4D0001C002C003C004C005C006C007121EBEFA
:101F5D0043B440900061E004F07006900060E0042E
:101F6D00F090001AE0FEA3E0FF900060E0FCA3E01B
:101F7D00FDD39FEC9E400353E1FE900014E0FEA3C1
:101F8D00E0FFC3ED9FEC9E400A900060E4F0A3F0EB
:101F9D0043E101D007D006D005D004D003D002D044
:0E1FAD0001D000D0D0D082D083D0F0D0E0326E
:0B000E00EF1FAC0670011E4C70F622C4
:030023000217F1D0
:1017F100C0E0C0F0C083C082C0D075D000C000C0BE
:0D18010001C002C003C004C005C006C0073E
:10180E00E59820E0030218B37B017A0079D47D328B
:10181E007C001223037B017A0079D412000390001E
:10182E0001E060149000E0E0FF04F074F52FF58203
:10183E00E43400F583E599F0E599900000B4FF05D6
:10184E00E004F08002E4F0900000E0B40218A3740B
:10185E0001F09000E0E4F078F57C007D01FBFAF9F0
:10186E00FE7F1412064D9000E0E0C39414403390B6
:10187E0000DF7401F078E17C00FD7B007A007900D6
:10188E007E007F1412064D9000E0E0FF7E0078E1AE
:10189E007C007D017B017A0079F512064D9000E007
:1018AE00E4F05398FEE59830E136900021E07002A6
:1018BE00A3E0602290015B7401F0A37400F0A374A6
:1018CE001DF07B017A007902121B7BEF600F9000F6
:1018DE0002E0F599800790005FE04401F05398FD17
:1018EE00D007D006D005D004D003D002D001D0004E
:0B18FE00D0D0D082D083D0F0D0E032F8
:10220D0078E17C007D017B007A0079007E007F14EF
:10221D0012064D9000E0E0FF7E0078E17C007D012C
:10222D007B017A0079F512064D9000DF7401F0E420
:03223D00A3F022E9
:10226E00D310AF01C3C0D08FFB75FDF075FC0FAE60
:10227E0004AF058EFA8FF975FDB475FC4B75FDE153
:08228E0075FC1ED0D092AF22B6
:10217000D310AF01C3C0D090011CEEF0A3EFF0A3C9
:0B218000EDF0A3EBF0A3EAF0A3E9F000
:10218B00E4A3F0F090011EE0FF900122E0C39F500A
:10219B002C90011FE0FBA3E475F001120778A9F066
:1021AB00FA120673FF90011CE475F001120778AD6B
:0D21BB00F0FC12226E900122E004F080C7BB
:0521C800D0D092AF220F
:1021CD00900119EEF0A3EFF0A3EBF0A3EAF0A3E971
:1021DD00F0AF051DEF6028900119E475F0011207AD
:1021ED007885F082F583E493FF90011BE0FBA3E477
:1021FD0075F001120778A9F0FAEF1206B980D22214
:1022E100D310AF01C3C0D075FDF075FC0F8EFA8F0E
:1022F100F975FDD275FC2D75FDE175FC1ED0D092EE
:02230100AF2209
:03001B00021DB50E
:081DB500C0E0C083C082C0D071
:101DBD00900004E004F07006900003E004F0C3907E
:101DCD000004E09404900003E09400405AE4F0A372
:101DDD00F0900062E014601B14602C2402703A90A5
:101DED000013E02405F582E43400F583E024FF922E
:101DFD00818026900013E02405F582E43400F583FC
:101E0D00E024FF92858012900013E02405F582E412
:101E1D003400F583E024FF9287900013E004F0E096
:071E2D00D3940E4002E4F023
:091E3400D0D0D082D083D0E0327E
:05203200900119EFF020
:10203700E4A3F0A3F090011AF0A3F090011AE0FED8
:10204700A3E0FFC39405EE64809480504FEF7802BD
:10205700C333CE33CED8F9FF24B0F58274003EF5F2
:1020670083E0FD900119E0FCEDB504207B017A00C7
:1020770079E1C00274B12FF58274003EF583A3E0C5
:10208700FAA3E0F5828A83D002120AD690011BE0F8
:0C20970004F070A790011AE004F0809F94
:0120A300221A
:0B190900900119EBF0A3EAF0A3E9F055
:10191400E4A3F0A31209D200000000900119E0FB37
:10192400A3E0FAA3E0F990000112068CFF601164B1
:1019340002600DEF64046008EF640660030219EFAF
:10194400900119E0FBA3E0FAA3E0F990000112066C
:101954008CFF7E007C007D0212074290011CEFF098
:1019640025E02409F582E43401F583E0FCA3E0FDDD
:10197400E4120219E4FBFA79807845120177E4FB5A
:10198400FA7980784012006E90011CE025E025E091
:101994002463F582E43400F583E0F8A3E0F9A3E0DE
:1019A400FAA3E0FB12006E90011D1209C6900128F3
:1019B40074FFF0A37416F0A374D3F0900119E0FB44
:1019C400A3E0FAA3E0F990000112068CFF90012B2A
:1019D400E4F0A3EFF090011DE0FCA3E0FDA3E0FE22
:1019E400A3E0FF90012D1209C6800E90012874FF18
:1019F400F0A37416F0A374DFF07B017A00797412FB
:021A04000B8C49
:011A060022BD
:10154800900119EBF0A3EAF0A3E9F0900119E0FB90
:10155800A3E0FAA3E0F990000112068CFF60116481
:1015680002600DEF64046008EF640660030216ACC5
:10157800E92402F9E43AFAC002C00178117C017D3D
:1015880001D001D0027E007F0412064D900111E0C7
:10159800FCA3E0FDA3E0FEA3E0FFC004C005C00675
:1015A800C007900119E0FBA3E0FAA3E0F99000015D
:1015B80012068CFF7E007C007D02120742EF780243
:1015C800C333CE33CED8F92463F58274003EF58355
:1015D800D007D006D005D0041209C6E49000DEF08A
:1015E8009000DEE0FFC394045048EF25E025E02496
:1015F80063F582E43400F583E0FCA3E0FDA3E0FE9C
:10160800A3E0FF9001151209C69000DEE075F00412
:10161800A424C4F9740035F0A801FC7D017B017A8B
:101628000179157E007F0412064D9000DEE004F07B
:1016380080AE7F007E3B1222E17B017A0079C47D77
:101648001012217090012874FFF0A37416F0A3748F
:10165800F0F0900063E0FCA3E0FDA3E0FEA3E0FF50
:1016680090012B1209C6900067E0FCA3E0FDA3E0FF
:10167800FEA3E0FF90012F1209C690006BE0FCA3C7
:10168800E0FDA3E0FEA3E0FF9001331209C690003D
:101698006FE0FCA3E0FDA3E0FEA3E0FF900137129A
:1016A80009C6800E90012874FFF0A37417F0A37484
:0C16B80011F07B017A007974120B8C2277
:0B0FAA00900119EBF0A3EAF0A3E9F0BE
:100FB50090011D1209D200000000E4900121F0A368
:100FC500F0A3F0A3F0900119E0FBA3E0FAA3E0F988
:100FD50090000112068C90011CF054C86002801824
:100FE50090011CE0FFC4540F64026002800A900166
:100FF5001CE0540FFFBF011090012874FFF0A3748B
:1010050017F0A3741D02121B900119E0FBA3E0FA6F
:10101500A3E0F990000212068CFFE4FCFDFEFBFA4A
:101025007901F812088AC004C005C006C0079001FE
:1010350019E0FBA3E0FAA3E0F990000312068CFE89
:10104500E4FCFDD003D002D001D0002BFFEA3EFE28
:10105500ED39FDEC38FCC004C005C006C0079001A1
:1010650019E0FBA3E0FAA3E0F990000412068CFF57
:10107500E4FCFDFED003D002D001D000EB2FFFEE43
:101085003AFEED39FDEC38FC90011D1209C6E47FEE
:10109500E97E01FDFC90011DE0F8A3E0F9A3E0FA6B
:1010A500A3E0FBC31209B5501090012874FFF0A30B
:1010B5007417F0A3743402121B7F807E847D1E7C1E
:1010C5000090011DE0F8A3E0F9A3E0FAA3E0FBD34B
:1010D5001209B5401090012874FFF0A37417F0A30E
:1010E500744302121B900119E0FBA3E0FAA3E0F997
:1010F50090000512068CD3946474809480401090FF
:10110500012874FFF0A37417F0A3745202121B9008
:10111500011CE0C4540FFFE0540FFD121D2B90017C
:1011250019E0FBA3E0FAA3E0F990000112068C9008
:10113500FF90F090011DE0F8A3E0F9A3E0FAA3E029
:10114500FB7F807E847D1E7C00120915900121EEB7
:10115500F0A3EFF0900121E0FCA3E0FDECF5E3ED59
:10116500F5E2900119E0FBA3E0FAA3E0F990000590
:1011750012068CFCE412021EC004C005C006C0079E
:10118500900121E0FCA3E0FDE4120219D003D00296
:10119500D001D00012006EE4FBFA79C87842120142
:1011A50077120252900123EEF0A3EFF0900123E0B5
:1011B500FCA3E0FDEC540FF5E5EDF5E49001287492
:1011C500FFF0A37417F0A37463F090011CE0C454FE
:1011D5000FFF90012BE4F0A3EFF090011CE0540FFA
:1011E500FF90012DE4F0A3EFF090011DE0FCA3E0DA
:1011F500FDA3E0FEA3E0FF90012F1209C69001199F
:10120500E0FBA3E0FAA3E0F990000512068CFF903D
:101215000133E4F0A3EFF07B017A007974120B8CB3
:0112250022A6
:10210F0090000112068CFE90000212068C7C0024B7
:10211F0000FFEC3E900014F0A3EFF09000031206C6
:10212F008CFE90000412068C2400FFEC3EFE900003
:10213F001AF0A3EFF090012874FFF0A37417F0A327
:10214F007493F0900014E0FDA3E090012BCDF0A369
:10215F00EDF0A3EEF0A3EFF07B017A007974020BA0
:01216F008CE3
:101FBB009000E2E0900119F090000112068CFF6492
:101FCB0001600AEF64056005EF6407704290011928
:101FDB00E0C4540FFFE0540FFD121D2BE4900013CF
:101FEB00F090012874FFF0A37417F0A374BAF0906B
:101FFB000119E0C4540FFF90012BE4F0A3EFF09014
:10200B000119E0540FFF90012DE4F0A3EF800D9028
:10201B00012874FFF0A37417F0A374D9F07B017A35
:06202B00007974120B8C19
:01203100228C
:0A233300900164E4F0A3F0A3F0228F
:0B122600900119EBF0A3EAF0A3E9F03F
:10123100900164E0F9A3E0FAA3E0900121C9F0A3D1
:10124100EAF0A3E9F0900121E0FBA3E0FAA3E04A70
:101251004B60030212E2900119E0FBA3E0FAA3E064
:10126100F9900121EBF0A3EAF0A3E9F0E4F5F01223
:10127100083E90011FE0FEA3E0FFA3E0FBA3E0FA1C
:10128100A3E0F9900002EE8FF012085D90011CE0DE
:10129100FBA3E0FAA3E0F9C003C002C00190012161
:1012A100E0FBA3E0FAA3E0F9900004120A537B00EB
:1012B1007A007900C003C002C001900121E0FBA3C4
:1012C100E0FAA3E0F9900007120A53900121E0F936
:1012D100A3E0FAA3E0900164C9F0A3EAF0A3E9F066
:1012E10022900164E0F9A3E0FAA3E0900121C98012
:1012F1002B900121E0FBA3E0FAA3E0F99000071293
:101301000A23E94A4B601E900121E0FBA3E0FAA306
:10131100E0F9900007120A23900121EBF0A3EAF013
:10132100A3E9F080CC900119E0FBA3E0FAA3E0F976
:10133100C003C002C001900121E0FBA3E0FAA3E0D9
:10134100F9900007120A53900121E0FBA3E0FAA3F0
:10135100E0F9900007120A23E4F5F012083E90012B
:101361001FE0FEA3E0FFA3E0FBA3E0FAA3E0F990F6
:101371000007120A23900002EE8FF012085D90011F
:101381001CE0FBA3E0FAA3E0F9C003C002C0019096
:101391000121E0FBA3E0FAA3E0F9900007120A2380
:1013A100900004120A537B007A007900C003C00246
:1013B100C001900121E0FBA3E0FAA3E0F99000074E
:0913C100120A23900007120A53DE
:0113CA002200
:0B1AD80090015EEBF0A3EAF0A3E9F040
:101AE300900164E0F9A3E0FAA3E0900161C9807D6D
:101AF300900161E0FBA3E0FAA3E04A4B6079900117
:101B030061A3A3E0F9900007120A23C003C002C037
:101B13000190015EE0FBA3E0FAA3E0F9D082D08359
:101B2300D0E06B7008E965827003EA6583702990E1
:101B3300015EE0FBA3E0FAA3E0F9900007120A2399
:101B4300C003C002C001900161E0FBA3E0FAA3E07F
:101B5300F9900007120A5322900161E0FBA3E0FA17
:101B6300A3E0F9900007120A23900161EBF0A3EAC6
:071B7300F0A3E9F0021AF3F0
:011B7A002248
:07000300E475F00102083E64
:10231400E475F00212083E900002E4F5F002085D54
:1022BD0012078EFFAEF064014E7005900002800E85
:1022CD00EF4E700F75F00112083E900002E4F5F02C
:0422DD0012085D2264
:0F23240012078E640145F07005F5F012083E2295
:10230300E4F5F012083EAF05900002EC8FF00208EE
:012313005D6C
:101EBE00900164E0F9A3E0FAA3E0900155C98065B2
:101ECE00900155E0FBA3E0FAA3E04A4B606090015D
:101EDE0055A3A3E0F912078E640145F0703290000D
:101EEE00021207B9D39400E5F09400400C90000262
:101EFE0074FFF5F01207F18017122314900155E0CC
:101F0E00FBA3E0FAA3E0F9900004120A23120AD20E
:101F1E00900155E0FBA3E0FAA3E0F9900007120A46
:0E1F2E0023900155EBF0A3EAF0A3E9F08092B6
:011F3C002282
:10224000E4F5F012083E900002E4F5F012085D900B
:102250000004E4F5F012085D900042E41206CBE9B8
:0E2260002442F9E43AFA12067344010206B968
:101E3D00900120EBF0A3EAF0A3E9F0900120E0FB84
:101E4D00A3E0FAA3E0F99000041207B9C3943CE5AE
:101E5D00F0940040037F0022900120E0FBA3E0FA04
:101E6D00A3E0F99000021207B9FDE92406F9E43A5E
:101E7D00FAE92DF9EA35F0FAEF1206B9900120E0F2
:101E8D00FBA3E0FAA3E0F99000021207B92401FFC9
:101E9D00E435F0FE7C007D3C1206ED900002EC8DE9
:101EAD00F012085D900004E475F0011207F17F0156
:011EBD002202
:101B7B00900158EBF0A3EAF0A3E9F0A3E0FBA3E09C
:101B8B00FAA3E0F99000041207B945F07002FF22A6
:101B9B00E92406F9E43AFAC003C002C00190015BE4
:101BAB00E0FBA3E0FAA3E0F912078ED001D002D03C
:101BBB000329F9EA35F0FA120673FF900158E0FB9E
:101BCB00A3E0FAA3E0F9EF1206B990015BE0FBA3E7
:101BDB00E0FAA3E0F912078E2401FFE435F0FE7C56
:101BEB00007D3C1206EDEC8DF012083E90015BE09F
:101BFB00FBA3E0FAA3E0F990000474FFF5F01207E1
:041C0B00F17F012242
:0B002600900119EBF0A3EAF0A3E9F051
:10003100E490011FF0900119E0FBA3E0FAA3E0F9BD
:1000410090011FE0F58275830012068CFF60169007
:10005100011CE0FBA3E0FAA3E0F9121E3D90011F91
:05006100E004F080D076
:010066002277
:10006E00EC4D6011E8497017ED33EC3304600DE48C
:10007E00FCFFFEFD22E933E8330470F80202BE12E3
:10008E00028958046009E4CC2481500628500902E4
:10009E0002C82840030202C5C0E0EB4A7044B98092
:1000AE0006D0E0FB0202B4EF4E701CBD8008EBFFE1
:1000BE00EAFEE9FD80EBE98DF0A4FEE5F0020157C2
:1000CE00E9CDF9EAFEEBFFEF89F0A4FCE5F0CE896D
:1000DE00F0A42EFFE435F0CD89F0A42DFEE435F02A
:1000EE008067EF4E7005BD80D780C3EF8BF0A4AC58
:1000FE00F0EE8BF0A42CFCE435F0F8EF8AF0A42C93
:10010E00E5F038FCE433CB8DF0A42CFCE5F03BF8A5
:10011E00EE8AF0A42CFCE5F038F8E433CF89F0A495
:10012E002CFCE5F038CF3400CE89F0A42FFFE5F09B
:10013E003EFEE433C98DF0A42EFEE5F039CD8AF0F3
:10014E00A42FFFE5F03EFEE43DFD33D0E0FB50076B
:10015E000BBB000F0202C8EC2CFCEF33FFEE33FE9C
:06016E00ED33FD0202A0CA
:100174000202C8EC5D046005E8590470030202BE83
:10018400120289580460F6EC4860F2EC7004FDFE3B
:10019400FF22C860DB2481C85009C398600250065E
:1001A4000202C59850CAF582E9294B4A7005AB8210
:1001B4000202B475F0007C1A7880C3EF9BEE9AEDCE
:1001C40099400DC3EF9BFFEE9AFEED99FDE842F0D6
:1001D400DC23ACF0D0E0FFD0E0FED0E0FDAB822029
:1001E400E7101BEB60BAEC2CFCEF33FFEE33FEEDB3
:1001F40033FD0202A0E803F830E705C0F075F00013
:10020400EF2FFFEE33FEED33FD40B830E7C280AA96
:1002140075F020800E75F010800575F0087D007E65
:10022400007F003392D530D5031209A7EC33401078
:10023400EF33FFEE33FEED33FDEC33FCD5F0ED226E
:0E024400E5F0247EA2D513CC92E7CDCEFF22AA
:10025200EDD2E7CD33EC3392D524814006E4FFFEA4
:10026200FDFC22FCE4CFCECDCC24E0501174FF8003
:10027200EDC3CC13CCCD13CDCE13CECF13CF0470A0
:07028200F030D5DE0209A7F0
:100B2700E5082428F582E43401F583E005082290DE
:100B37000125300703900128E475F001120A03022A
:100B470006732000E97F2ED2008018EF540F2490FF
:100B5700D43440D4FF30040BEF24BFB41A00500341
:100B67002461FFE50960021509050CE50C70020513
:100B77000B30070E900125E475F001120A03EF020E
:100B870006B90222967403D2078003E4C207F50868
:100B9700900125120A1AE4F509F50BF50CE5096031
:100BA700077F20120B6A80F5750AFFC201C200C2D7
:100BB70002C203C205C206C208120B36FF700D300F
:100BC70007057F00120B7BAF0CAE0B22B4255FC26B
:100BD700D5C204120B36FF24D0B40A00501A75F0A0
:100BE7000A780930D50508B6FF0106C6A426F620FF
:100BF700D5047002D20380D924CFB41A00EF500471
:100C0700C2E5D204020E6DD20180C6D20080C0D2E6
:100C17000280BCD2D580BAD20580B47F20120B6A7D
:100C27002002077401B5090040F1120B27FF120BD0
:100C37006A020BA4D208D2068095120B27FB120B6F
:100C470027FA120B27F94A4B7006796B7A0F7BFF4D
:100C570020022EE509602A7E008E82758300120627
:100C67008C60060EEE650A70F0C2D5EBC0E0EAC0F4
:100C7700E0E9C0E0EE120ECED0E0F9D0E0FAD0E025
:100C8700FB120673FF60AAEBC0E0EAC0E0E9C0E030
:100C9700120B6AD0E02401F9D0E03400FAD0E0FB6F
:100CA700E50A0460DCD50AD98087D20280A2120E39
:100CB700B060F7E50A7001041202D3A90A600DE5D6
:100CC7000A600914F50A120F58EF60F3EA30E702D9
:100CD700F404C3995079EAF4250A0430E701E404DF
:100CE700F50A800D120EB060C1EA050A250A120244
:100CF700D3EA900154F030E701E4250A04D50A0449
:100D070020050114120ECEE4C0E0120F58900154D2
:100D1700E0601320E70714F0120B52802204F0D092
:100D2700E014C0E07F00120B52E50A6007120B497E
:100D3700150A800B300503120B49D0E0020BA4D033
:100D4700E00480C4120EB0609EE50A041202D3903C
:100D57000154EAF0E50A2005026001042404120E9A
:010D6700CEBD
:100D680074FF04C0E0120F58120B52E50A20050266
:100D78006003120B49D0E0B50AE87F45120B5C907E
:100D88000154E07F2B30E7047F2DF404C0E0120B00
:100D98006AD0E075F00A84C0F0120B53D0E0120B51
:100DA80053020BA4791080027908C206C208800891
:100DB800D2D5790A8004790AC2D5E50A047002F509
:100DC8000AE4FAFDFEFF120B27FC7B082001131230
:100DD8000B27FD7B1030000A120B27FE120B27FF92
:100DE8007B20EC3382D592D55013C3E43000069FA4
:100DF800FFE49EFEE42001039DFDE49CFCE4CBF8A7
:100E0800C201EC700CCFCECDCCE824F8F870F3809A
:100E180017C3EF33FFEE33FEED33FDEC33FCEB335A
:100E2800FB994002FB0FD8E9EB300105F8D0E0C48C
:100E380048B201C0E00AEC4D4E4F78207B0070C2EA
:100E4800EAB50A0040BCC0E0120ED0D0F0D0E020D5
:100E58000104C4C0E0C4B201C0F0120B53D0F0D5F5
:100E6800F0EB020BA4120AAC0C41530DAC580C1257
:100E78004C0C0E420DB04F0DB8440DB8490C274329
:100E88000DBE550CEB460D4B450CB5470F8B500C62
:100E9800162D0C1A2E0C3D2B0C1E230C3B200F7408
:100EA8002A0BD64800000C35E50AB4FF03750A067C
:100EB800120B27FC120B27FD120B27FE120B27FF24
:100EC80090014D020310790AA2D5200314300509B8
:100ED800B910020404B9080104A2D5200602500181
:100EE800042002689202B509005034C0E07F203027
:100EF80003197F30A20272067205500F120F27C223
:100F080002C206C205C2087F30800F300503E9C05F
:100F1800E0120B6A300503D0E0F9D0E0B509CC3017
:100F280005177F30B9100C120B6A7F583004077F01
:100F3800788003B90803120B6A3002057F2D020B73
:100F48006A7F202008F87F2B2006F322920280CFA8
:100F58007F00B40700500B244DF582E43401F5837B
:100F6800E0FF22286E756C6C2900D201120B273025
:100F780001F8C201780930D50108F6020BD62D50C8
:100F8800434958120B272403B405004001E4900F8D
:100F98008693120B5B743A120B5BD2037509040239
:020FA8000DAC8E
:10028900E9D2E7C933E833F892D5EDD2E7CD33ECBB
:0702990033FC5002B2D52234
:1002A000EC30E7100FBF000C0EBE00080DBD0004BF
:1002B0000BEB6014A2D5EB13FCED92E7FD2274FF6B
:1002C000FCFDFEFF22E480F8A2D574FF13FC7D80C4
:0302D000E480EFD8
:1002D300F920E73624F950037907E4F42402FBE517
:1002E30082158270021583DBF6E024FB501BE96064
:1002F30014E4F0E582158270021583E004F0B40A79
:0D03030008E4F0D9EE7401F00A22C2D52200
:10031000ED33EC3392D5FA602AB4FF33EDC2E77BBC
:10032000FF60067A037935E4227A03793E20D5040A
:100330007A037939224E614E002B494E46002D49F1
:100340004E4600E47A08F0A3DAFC7B00740722C072
:1003500083C082ECC0E0EDC0E0EEC0E0EFC0E0EAB8
:1003600075F010A4CAABF075F04DA42BFBE435F08A
:10037000FCEA2410FAEB34C5FBEC34D9FCEDC2E7FF
:10038000FF75F056A4F42411C5F0F434C58FF0A421
:100390002AE5F03BE43CF020E71412053DD0E0FFF5
:1003A000D0E0FED0E0FDD0E0FC1201778014F40430
:1003B00012053DD0E0FFD0E0FED0E0FDD0E0FC1221
:1003C000006ED082D083E0FAEDD2E7CD33EC332457
:1003D00082FBE4C3CF33CFCE33CECD33CD33DBF38B
:1003E0007B0775F00A846004F0A31B0AE5F0F0A314
:1003F0008FF0740AA4FFACF08EF0740AA42CFEAC4B
:10040000F050010C8DF0740AA42CFDE435F0F0A33B
:05041000DBDE74072291
:100415000202BEE86480F8E933E83360110460F055
:10042500ED33EC337009E8FCE9FDEAFEEBFF22044D
:1004350060DED3EB9FEA9EE99DE8C2E78CF0C2F748
:1004450095F0400CE8CCF8E9CDF9EACEFAEBCFFB14
:1004550012028985D0F05804700320D5B3E80470E2
:10046500075002B2D50202C892D5EC0460F7E4CC7D
:10047500C0E0C398F8603B94186008400DD0E0FBDD
:100485000202A0E4FBFAC9FC8028E830E406E4C9CE
:10049500FBE4CAFCE830E305E4C9CACBFCE8540731
:1004A5006010F8C3E913F9EA13FAEB13FBEC13FC3C
:1004B500D8F130F52FC3E49CFCEF9BFFEE9AFEEDDF
:1004C50099FDD0E0FBEF4E4D4C701222DB0302028A
:1004D500C5EC2CFCEF33FFEE33FEED33FDED30E7DD
:1004E500EB0202A0EF2BFFEE3AFEED39FDD0E0FB6B
:1004F50050130BBB00030202C8ED13FDEE13FEEF14
:0805050013FFEC13FC0202A03D
:10050D003F8000004120000042C80000447A0000F6
:10051D00461C400047C35000497424004B18968078
:10052D004CBEBC205A0E1BCA6753C21C749DC5AE6F
:10053D00FB60065407601C232312056BEB543860D7
:10054D000912055712056612006EECF8EDF9EEFA78
:10055D00EFCB22EB12056680F1543803241C900575
:10056D000DFE93FC0EEE93FD0EEE930ECE93FF2239
:101CAB00021C0FE493A3F8E493A34003F68001F224
:101CBB0008DFF48029E493A3F85407240CC8C3333A
:101CCB00C4540F4420C8834004F456800146F6DF09
:101CDB00E4800B0102040810204080901A07E47E78
:101CEB00019360BCA3FF543F30E509541FFEE493FE
:101CFB00A360010ECF54C025E060A840B8E493A3C5
:101D0B00FAE493A3F8E493A3C8C582C8CAC583CAEF
:101D1B00F0A3C8C582C8CAC583CADFE9DEE780BEA7
:011AD700000E
:10057D00E709F608DFFA8046E709F208DFFA803E60
:10058D0088828C83E709F0A3DFFA8032E309F6084D
:10059D00DFFA8078E309F208DFFA807088828C83B5
:1005AD00E309F0A3DFFA806489828A83E0A3F60869
:1005BD00DFFA805889828A83E0A3F208DFFA804C43
:1005CD0080D280FA80C680D4806980F2803380101A
:1005DD0080A680EA809A80A880DA80E280CA803383
:1005ED0089828A83ECFAE493A3C8C582C8CCC583FB
:1005FD00CCF0A3C8C582C8CCC583CCDFE9DEE780CB
:10060D000D89828A83E493A3F608DFF9ECFAA9F049
:10061D00EDFB2289828A83ECFAE0A3C8C582C8CC9F
:10062D00C583CCF0A3C8C582C8CCC583CCDFEADEB8
:10063D00E880DB89828A83E493A3F208DFF980CC1A
:10064D0088F0EF60010E4E60C388F0ED2402B40413
:10065D000050B9F582EB2402B4040050AF232345BA
:06066D0082239005CD730D
:10067300BB010689828A83E0225002E722BBFE0285
:09068300E32289828A83E49322B8
:10068C00BB010CE58229F582E5833AF583E0225023
:10069C0006E92582F8E622BBFE06E92582F8E2226D
:0D06AC00E58229F582E5833AF583E4932287
:1006B900BB010689828A83F0225002F722BBFE0120
:0206C900F3221A
:1006CB00F8BB010DE58229F582E5833AF583E8F065
:1006DB00225006E92582C8F622BBFE05E92582C811
:0206EB00F222F9
:1006ED00BC000BBE0029EF8DF084FFADF022E4CCF1
:1006FD00F875F008EF2FFFEE33FEEC33FCEE9DECBA
:10070D00984005FCEE9DFE0FD5F0E9E4CEFD22EDFF
:10071D00F8F5F0EE8420D21CFEADF075F008EF2F49
:10072D00FFED33FD4007985006D5F0F222C398FD3A
:05073D000FD5F0EA22D7
:10074200C2D5EC30E709B2D5E4C39DFDE49CFCEED2
:1007520030E715B2D5E4C39FFFE49EFE1206EDC357
:10076200E49DFDE49CFC80031206ED30D507C3E452
:060772009FFFE49EFE2241
:10077800A3F8E0C5F025F0F0E58215827002158334
:06078800E0C838F0E82291
:10078E00BB010A89828A83E0F5F0A3E02250068736
:10079E00F009E71922BBFE07E3F5F009E3192289F8
:0B07AE00828A83E493F5F0740193222B
:1007B900BB0110E58229F582E5833AF583E0F5F07E
:1007C900A3E0225009E92582F886F008E622BBFE5B
:1007D9000AE92582F8E2F5F008E222E5832AF583A1
:0807E900E993F5F0A3E9932266
:1007F100BB010DC58229C582C5833AC583020AD8CA
:100801005011C58229F808E5F026F618F5F0E582C1
:1008110036F622BBFE11C58229F808E225F0F5F073
:10082100F218E23582F222F8E58229F582E5832A7F
:0D083100F58374019325F0F5F0E49338226F
:10083E00BB010A89828A83F0E5F0A3F0225006F705
:0F084E0009A7F01922BBFE06F3E5F009F3192202
:10085D00F8BB0111E58229F582E5833AF583E8F0CD
:10086D00E5F0A3F0225009E92582C8F608A6F0228A
:0D087D00BBFE09E92582C8F2E5F008F22271
:10088A00E88FF0A4CC8BF0A42CFCE98EF0A42CFC0D
:10089A008AF0EDA42CFCEA8EF0A4CDA8F08BF0A48B
:1008AA002DCC3825F0FDE98FF0A42CCD35F0FCEBEA
:1008BA008EF0A4FEA9F0EB8FF0A4CFC5F02ECD39AF
:0F08CA00FEE43CFCEAA42DCE35F0FDE43CFC221C
:1008D90075F008758200EF2FFFEE33FECD33CDCCD6
:1008E90033CCC58233C5829BED9AEC99E582984059
:1008F9000CF582EE9BFEED9AFDEC99FC0FD5F0D636
:10090900E4CEFBE4CDFAE4CCF9A88222B800C1B95F
:100919000059BA002DEC8BF084CFCECDFCE5F0CB9D
:10092900F97818EF2FFFEE33FEED33FDEC33FCEBD6
:1009390033FB10D703994004EB99FB0FD8E5E4F991
:10094900FA227818EF2FFFEE33FEED33FDEC33FC7E
:10095900C933C910D7059BE99A4007EC9BFCE99A72
:10096900F90FD8E0E4C9FAE4CCFB2275F010EF2FB7
:10097900FFEE33FEED33FDCC33CCC833C810D707B7
:100989009BEC9AE899400AED9BFDEC9AFCE899F8F2
:0E0999000FD5F0DAE4CDFBE4CCFAE4C8F92285
:0E09A700C3E49FFFE49EFEE49DFDE49CFC2261
:1009B500EB9FF5F0EA9E42F0E99D42F0E89C45F098
:0109C500220F
:0C09C600ECF0A3EDF0A3EEF0A3EFF022A4
:1009D200A8828583F0D083D0821209E91209E91234
:1009E20009E91209E9E473E493A3C583C5F0C58359
:1009F200C8C582C8F0A3C583C5F0C583C8C582C86F
:010A020022D1
:100A0300F8E0FBA3A3E0F925F0F0E582158270027C
:070A13001583E0FA38F02220
:090A1A00EBF0A3EAF0A3E9F022DD
:100A2300BB010DE58229F582E5833AF583020B00CC
:100A33005007E92582F8020AEEBBFE07E92582F892
:100A4300020B09E58229F582E5833AF583020B1B44
:100A5300BB0120E58229F582E5833AF583D0F0D006
:100A6300E0F8D0E0F9D0E0FAD0E0FBE8C0E0C0F075
:100A7300020A1A5018E92582F8D083D082D0E0F90F
:100A8300D0E0FAD0E0FBC082C083020AF7BBFE18B5
:100A9300E92582F8D083D082D0E0F9D0E0FAD0E023
:090AA300FBC082C083020B122289
:100AAC00D083D082F8E4937012740193700DA3A3D9
:100ABC0093F8740193F5828883E4737402936860ED
:060ACC00EFA3A3A380DFED
:060AD2008A838982E473AF
:10229600EFB40A07740D1222A1740A309811A89996
:1022A600B8130CC2983098FDA899C298B811F630A8
:0722B60099FDC299F5992280
:100AD800C5F0F8A3E028F0C5F0F8E58215827002A9
:060AE8001583E038F02246
:090AEE00E6FB08E6FA08E6F9222D
:090AF700EBF608EAF608E9F62224
:090B0000E0FBA3E0FAA3E0F922F6
:090B0900E2FB08E2FA08E2F9221D
:090B1200EBF208EAF208E9F22214
:0C0B1B00E493FB740193FA740293F92236
:00000001FF
